{
  "contractName": "Artist",
  "abi": [
    {
      "inputs": [
        {
          "internalType": "address",
          "name": "",
          "type": "address"
        }
      ],
      "name": "artists",
      "outputs": [
        {
          "internalType": "string",
          "name": "firstName",
          "type": "string"
        },
        {
          "internalType": "string",
          "name": "lastName",
          "type": "string"
        },
        {
          "internalType": "string",
          "name": "nationality",
          "type": "string"
        },
        {
          "internalType": "uint256",
          "name": "age",
          "type": "uint256"
        }
      ],
      "stateMutability": "view",
      "type": "function",
      "constant": true
    },
    {
      "inputs": [
        {
          "internalType": "string",
          "name": "_firstName",
          "type": "string"
        },
        {
          "internalType": "string",
          "name": "_lastName",
          "type": "string"
        },
        {
          "internalType": "string",
          "name": "_nationality",
          "type": "string"
        },
        {
          "internalType": "uint256",
          "name": "_age",
          "type": "uint256"
        }
      ],
      "name": "createArtistProfile",
      "outputs": [],
      "stateMutability": "nonpayable",
      "type": "function"
    },
    {
      "inputs": [
        {
          "internalType": "string",
          "name": "_firstName",
          "type": "string"
        },
        {
          "internalType": "string",
          "name": "_lastName",
          "type": "string"
        },
        {
          "internalType": "string",
          "name": "_nationality",
          "type": "string"
        },
        {
          "internalType": "uint256",
          "name": "_age",
          "type": "uint256"
        }
      ],
      "name": "updateArtistProfile",
      "outputs": [],
      "stateMutability": "nonpayable",
      "type": "function"
    },
    {
      "inputs": [
        {
          "internalType": "address",
          "name": "_artistAddress",
          "type": "address"
        }
      ],
      "name": "getArtistProfile",
      "outputs": [
        {
          "internalType": "string",
          "name": "",
          "type": "string"
        },
        {
          "internalType": "string",
          "name": "",
          "type": "string"
        },
        {
          "internalType": "string",
          "name": "",
          "type": "string"
        },
        {
          "internalType": "uint256",
          "name": "",
          "type": "uint256"
        }
      ],
      "stateMutability": "view",
      "type": "function",
      "constant": true
    }
  ],
  "bytecode": "0x608060405234801561000f575f80fd5b50610cab8061001d5f395ff3fe608060405234801561000f575f80fd5b506004361061004a575f3560e01c8063069dab8f1461004e57806365f642b1146100815780639bee9be61461009d578063b3b30640146100b9575b5f80fd5b61006860048036038101906100639190610679565b6100ec565b6040516100789493929190610746565b60405180910390f35b61009b600480360381019061009691906108f4565b6102a9565b005b6100b760048036038101906100b291906108f4565b61035e565b005b6100d360048036038101906100ce9190610679565b6103e2565b6040516100e39493929190610746565b60405180910390f35b5f602052805f5260405f205f91509050805f01805461010a906109d9565b80601f0160208091040260200160405190810160405280929190818152602001828054610136906109d9565b80156101815780601f1061015857610100808354040283529160200191610181565b820191905f5260205f20905b81548152906001019060200180831161016457829003601f168201915b505050505090806001018054610196906109d9565b80601f01602080910402602001604051908101604052809291908181526020018280546101c2906109d9565b801561020d5780601f106101e45761010080835404028352916020019161020d565b820191905f5260205f20905b8154815290600101906020018083116101f057829003601f168201915b505050505090806002018054610222906109d9565b80601f016020809104026020016040519081016040528092919081815260200182805461024e906109d9565b80156102995780601f1061027057610100808354040283529160200191610299565b820191905f5260205f20905b81548152906001019060200180831161027c57829003601f168201915b5050505050908060030154905084565b5f6040518060800160405280868152602001858152602001848152602001838152509050805f803373ffffffffffffffffffffffffffffffffffffffff1673ffffffffffffffffffffffffffffffffffffffff1681526020019081526020015f205f820151815f01908161031d9190610ba6565b5060208201518160010190816103339190610ba6565b5060408201518160020190816103499190610ba6565b50606082015181600301559050505050505050565b5f805f3373ffffffffffffffffffffffffffffffffffffffff1673ffffffffffffffffffffffffffffffffffffffff1681526020019081526020015f20905084815f0190816103ad9190610ba6565b50838160010190816103bf9190610ba6565b50828160020190816103d19190610ba6565b508181600301819055505050505050565b60608060605f805f808773ffffffffffffffffffffffffffffffffffffffff1673ffffffffffffffffffffffffffffffffffffffff1681526020019081526020015f206040518060800160405290815f8201805461043f906109d9565b80601f016020809104026020016040519081016040528092919081815260200182805461046b906109d9565b80156104b65780601f1061048d576101008083540402835291602001916104b6565b820191905f5260205f20905b81548152906001019060200180831161049957829003601f168201915b505050505081526020016001820180546104cf906109d9565b80601f01602080910402602001604051908101604052809291908181526020018280546104fb906109d9565b80156105465780601f1061051d57610100808354040283529160200191610546565b820191905f5260205f20905b81548152906001019060200180831161052957829003601f168201915b5050505050815260200160028201805461055f906109d9565b80601f016020809104026020016040519081016040528092919081815260200182805461058b906109d9565b80156105d65780601f106105ad576101008083540402835291602001916105d6565b820191905f5260205f20905b8154815290600101906020018083116105b957829003601f168201915b505050505081526020016003820154815250509050805f01518160200151826040015183606001519450945094509450509193509193565b5f604051905090565b5f80fd5b5f80fd5b5f73ffffffffffffffffffffffffffffffffffffffff82169050919050565b5f6106488261061f565b9050919050565b6106588161063e565b8114610662575f80fd5b50565b5f813590506106738161064f565b92915050565b5f6020828403121561068e5761068d610617565b5b5f61069b84828501610665565b91505092915050565b5f81519050919050565b5f82825260208201905092915050565b5f5b838110156106db5780820151818401526020810190506106c0565b5f8484015250505050565b5f601f19601f8301169050919050565b5f610700826106a4565b61070a81856106ae565b935061071a8185602086016106be565b610723816106e6565b840191505092915050565b5f819050919050565b6107408161072e565b82525050565b5f6080820190508181035f83015261075e81876106f6565b9050818103602083015261077281866106f6565b9050818103604083015261078681856106f6565b90506107956060830184610737565b95945050505050565b5f80fd5b5f80fd5b7f4e487b71000000000000000000000000000000000000000000000000000000005f52604160045260245ffd5b6107dc826106e6565b810181811067ffffffffffffffff821117156107fb576107fa6107a6565b5b80604052505050565b5f61080d61060e565b905061081982826107d3565b919050565b5f67ffffffffffffffff821115610838576108376107a6565b5b610841826106e6565b9050602081019050919050565b828183375f83830152505050565b5f61086e6108698461081e565b610804565b90508281526020810184848401111561088a576108896107a2565b5b61089584828561084e565b509392505050565b5f82601f8301126108b1576108b061079e565b5b81356108c184826020860161085c565b91505092915050565b6108d38161072e565b81146108dd575f80fd5b50565b5f813590506108ee816108ca565b92915050565b5f805f806080858703121561090c5761090b610617565b5b5f85013567ffffffffffffffff8111156109295761092861061b565b5b6109358782880161089d565b945050602085013567ffffffffffffffff8111156109565761095561061b565b5b6109628782880161089d565b935050604085013567ffffffffffffffff8111156109835761098261061b565b5b61098f8782880161089d565b92505060606109a0878288016108e0565b91505092959194509250565b7f4e487b71000000000000000000000000000000000000000000000000000000005f52602260045260245ffd5b5f60028204905060018216806109f057607f821691505b602082108103610a0357610a026109ac565b5b50919050565b5f819050815f5260205f209050919050565b5f6020601f8301049050919050565b5f82821b905092915050565b5f60088302610a657fffffffffffffffffffffffffffffffffffffffffffffffffffffffffffffffff82610a2a565b610a6f8683610a2a565b95508019841693508086168417925050509392505050565b5f819050919050565b5f610aaa610aa5610aa08461072e565b610a87565b61072e565b9050919050565b5f819050919050565b610ac383610a90565b610ad7610acf82610ab1565b848454610a36565b825550505050565b5f90565b610aeb610adf565b610af6818484610aba565b505050565b5b81811015610b1957610b0e5f82610ae3565b600181019050610afc565b5050565b601f821115610b5e57610b2f81610a09565b610b3884610a1b565b81016020851015610b47578190505b610b5b610b5385610a1b565b830182610afb565b50505b505050565b5f82821c905092915050565b5f610b7e5f1984600802610b63565b1980831691505092915050565b5f610b968383610b6f565b9150826002028217905092915050565b610baf826106a4565b67ffffffffffffffff811115610bc857610bc76107a6565b5b610bd282546109d9565b610bdd828285610b1d565b5f60209050601f831160018114610c0e575f8415610bfc578287015190505b610c068582610b8b565b865550610c6d565b601f198416610c1c86610a09565b5f5b82811015610c4357848901518255600182019150602085019450602081019050610c1e565b86831015610c605784890151610c5c601f891682610b6f565b8355505b6001600288020188555050505b50505050505056fea2646970667358221220b61667d3c3abbfd3a5698c82da77463a7af2af69423cda8fe40db24b5279ff9d64736f6c63430008140033",
  "immutableReferences": {},
  "source": "// SPDX-License-Identifier: MIT\npragma solidity ^0.8.20;\n\n/// @title Contrat Artist\n/// @dev Ce contrat permet la cration et la gestion de profils d'artistes\ncontract Artist {\n    /// @notice Struct pour un profil d'artiste\n    /// @param firstName Prnom de l'artiste\n    /// @param lastName Nom de famille de l'artiste\n    /// @param nationality Nationalit de l'artiste\n    /// @param age ge de l'artiste\n    struct ArtistProfile {\n        string firstName;\n        string lastName;\n        string nationality;\n        uint age;\n    }\n\n    /// @notice Un mapping reliant une adresse Ethereum  un profil d'artiste\n    mapping(address => ArtistProfile) public artists;\n\n    /// @notice Cre un nouveau profil d'artiste\n    /// @param _firstName Le prnom de l'artiste\n    /// @param _lastName Le nom de famille de l'artiste\n    /// @param _nationality La nationalit de l'artiste\n    /// @param _age L'ge de l'artiste\n    function createArtistProfile(string memory _firstName, string memory _lastName, string memory _nationality, uint _age) public {\n        ArtistProfile memory newArtist = ArtistProfile({\n            firstName: _firstName,\n            lastName: _lastName,\n            nationality: _nationality,\n            age: _age\n        });\n        \n        artists[msg.sender] = newArtist;\n    }\n\n    /// @notice Met  jour un profil d'artiste\n    /// @param _firstName Le nouveau prnom de l'artiste\n    /// @param _lastName Le nouveau nom de famille de l'artiste\n    /// @param _nationality La nouvelle nationalit de l'artiste\n    /// @param _age Le nouvel ge de l'artiste\n    function updateArtistProfile(string memory _firstName, string memory _lastName, string memory _nationality, uint _age) public {\n        ArtistProfile storage artist = artists[msg.sender];\n        artist.firstName = _firstName;\n        artist.lastName = _lastName;\n        artist.nationality = _nationality;\n        artist.age = _age;\n    }\n\n    /// @notice Rcupre le profil d'un artiste\n    /// @param _artistAddress L'adresse de l'artiste dont on veut rcuprer le profil\n    /// @return firstName Le prnom de l'artiste\n    /// @return lastName Le nom de famille de l'artiste\n    /// @return nationality La nationalit de l'artiste\n    /// @return age L'ge de l'artiste\n    function getArtistProfile(address _artistAddress) public view returns (string memory, string memory, string memory, uint) {\n        ArtistProfile memory artist = artists[_artistAddress];\n        return (artist.firstName, artist.lastName, artist.nationality, artist.age);\n    }\n}\n",
  "sourcePath": "/home/mathis/Apotheose-Alyra/my-dapp/Backend-Smart Contracts/contracts/Artist.sol",
  "compiler": {
    "name": "solc",
    "version": "0.8.20+commit.a1b79de6.Emscripten.clang"
  },
  "schemaVersion": "3.4.14",
  "updatedAt": "2023-07-22T17:50:13.749Z",
  "networkType": "ethereum",
  "devdoc": {
    "details": "Ce contrat permet la cration et la gestion de profils d'artistes",
    "kind": "dev",
    "methods": {
      "createArtistProfile(string,string,string,uint256)": {
        "params": {
          "_age": "L'ge de l'artiste",
          "_firstName": "Le prnom de l'artiste",
          "_lastName": "Le nom de famille de l'artiste",
          "_nationality": "La nationalit de l'artiste"
        }
      },
      "getArtistProfile(address)": {
        "params": {
          "_artistAddress": "L'adresse de l'artiste dont on veut rcuprer le profil"
        },
        "returns": {
          "_0": "firstName Le prnom de l'artiste",
          "_1": "lastName Le nom de famille de l'artiste",
          "_2": "nationality La nationalit de l'artiste",
          "_3": "age L'ge de l'artiste"
        }
      },
      "updateArtistProfile(string,string,string,uint256)": {
        "params": {
          "_age": "Le nouvel ge de l'artiste",
          "_firstName": "Le nouveau prnom de l'artiste",
          "_lastName": "Le nouveau nom de famille de l'artiste",
          "_nationality": "La nouvelle nationalit de l'artiste"
        }
      }
    },
    "title": "Contrat Artist",
    "version": 1
  },
  "userdoc": {
    "kind": "user",
    "methods": {
      "artists(address)": {
        "notice": "Un mapping reliant une adresse Ethereum  un profil d'artiste"
      },
      "createArtistProfile(string,string,string,uint256)": {
        "notice": "Cre un nouveau profil d'artiste"
      },
      "getArtistProfile(address)": {
        "notice": "Rcupre le profil d'un artiste"
      },
      "updateArtistProfile(string,string,string,uint256)": {
        "notice": "Met  jour un profil d'artiste"
      }
    },
    "version": 1
  }
}