{
  "contractName": "Artwork",
  "abi": [
    {
      "inputs": [],
      "stateMutability": "nonpayable",
      "type": "constructor"
    },
    {
      "anonymous": false,
      "inputs": [
        {
          "indexed": true,
          "internalType": "address",
          "name": "owner",
          "type": "address"
        },
        {
          "indexed": true,
          "internalType": "address",
          "name": "approved",
          "type": "address"
        },
        {
          "indexed": true,
          "internalType": "uint256",
          "name": "tokenId",
          "type": "uint256"
        }
      ],
      "name": "Approval",
      "type": "event"
    },
    {
      "anonymous": false,
      "inputs": [
        {
          "indexed": true,
          "internalType": "address",
          "name": "owner",
          "type": "address"
        },
        {
          "indexed": true,
          "internalType": "address",
          "name": "operator",
          "type": "address"
        },
        {
          "indexed": false,
          "internalType": "bool",
          "name": "approved",
          "type": "bool"
        }
      ],
      "name": "ApprovalForAll",
      "type": "event"
    },
    {
      "anonymous": false,
      "inputs": [
        {
          "indexed": true,
          "internalType": "address",
          "name": "from",
          "type": "address"
        },
        {
          "indexed": true,
          "internalType": "address",
          "name": "to",
          "type": "address"
        },
        {
          "indexed": true,
          "internalType": "uint256",
          "name": "tokenId",
          "type": "uint256"
        }
      ],
      "name": "Transfer",
      "type": "event"
    },
    {
      "inputs": [
        {
          "internalType": "address",
          "name": "to",
          "type": "address"
        },
        {
          "internalType": "uint256",
          "name": "tokenId",
          "type": "uint256"
        }
      ],
      "name": "approve",
      "outputs": [],
      "stateMutability": "nonpayable",
      "type": "function"
    },
    {
      "inputs": [
        {
          "internalType": "uint256",
          "name": "",
          "type": "uint256"
        }
      ],
      "name": "artworks",
      "outputs": [
        {
          "internalType": "string",
          "name": "title",
          "type": "string"
        },
        {
          "internalType": "string",
          "name": "description",
          "type": "string"
        },
        {
          "internalType": "string",
          "name": "imageUrl",
          "type": "string"
        },
        {
          "internalType": "uint256",
          "name": "price",
          "type": "uint256"
        },
        {
          "internalType": "bool",
          "name": "isSold",
          "type": "bool"
        },
        {
          "internalType": "uint256",
          "name": "date",
          "type": "uint256"
        },
        {
          "internalType": "string",
          "name": "dimensions",
          "type": "string"
        }
      ],
      "stateMutability": "view",
      "type": "function",
      "constant": true
    },
    {
      "inputs": [
        {
          "internalType": "address",
          "name": "owner",
          "type": "address"
        }
      ],
      "name": "balanceOf",
      "outputs": [
        {
          "internalType": "uint256",
          "name": "",
          "type": "uint256"
        }
      ],
      "stateMutability": "view",
      "type": "function",
      "constant": true
    },
    {
      "inputs": [
        {
          "internalType": "uint256",
          "name": "tokenId",
          "type": "uint256"
        }
      ],
      "name": "getApproved",
      "outputs": [
        {
          "internalType": "address",
          "name": "",
          "type": "address"
        }
      ],
      "stateMutability": "view",
      "type": "function",
      "constant": true
    },
    {
      "inputs": [
        {
          "internalType": "address",
          "name": "owner",
          "type": "address"
        },
        {
          "internalType": "address",
          "name": "operator",
          "type": "address"
        }
      ],
      "name": "isApprovedForAll",
      "outputs": [
        {
          "internalType": "bool",
          "name": "",
          "type": "bool"
        }
      ],
      "stateMutability": "view",
      "type": "function",
      "constant": true
    },
    {
      "inputs": [],
      "name": "name",
      "outputs": [
        {
          "internalType": "string",
          "name": "",
          "type": "string"
        }
      ],
      "stateMutability": "view",
      "type": "function",
      "constant": true
    },
    {
      "inputs": [
        {
          "internalType": "uint256",
          "name": "tokenId",
          "type": "uint256"
        }
      ],
      "name": "ownerOf",
      "outputs": [
        {
          "internalType": "address",
          "name": "",
          "type": "address"
        }
      ],
      "stateMutability": "view",
      "type": "function",
      "constant": true
    },
    {
      "inputs": [
        {
          "internalType": "address",
          "name": "from",
          "type": "address"
        },
        {
          "internalType": "address",
          "name": "to",
          "type": "address"
        },
        {
          "internalType": "uint256",
          "name": "tokenId",
          "type": "uint256"
        }
      ],
      "name": "safeTransferFrom",
      "outputs": [],
      "stateMutability": "nonpayable",
      "type": "function"
    },
    {
      "inputs": [
        {
          "internalType": "address",
          "name": "from",
          "type": "address"
        },
        {
          "internalType": "address",
          "name": "to",
          "type": "address"
        },
        {
          "internalType": "uint256",
          "name": "tokenId",
          "type": "uint256"
        },
        {
          "internalType": "bytes",
          "name": "data",
          "type": "bytes"
        }
      ],
      "name": "safeTransferFrom",
      "outputs": [],
      "stateMutability": "nonpayable",
      "type": "function"
    },
    {
      "inputs": [
        {
          "internalType": "address",
          "name": "operator",
          "type": "address"
        },
        {
          "internalType": "bool",
          "name": "approved",
          "type": "bool"
        }
      ],
      "name": "setApprovalForAll",
      "outputs": [],
      "stateMutability": "nonpayable",
      "type": "function"
    },
    {
      "inputs": [
        {
          "internalType": "bytes4",
          "name": "interfaceId",
          "type": "bytes4"
        }
      ],
      "name": "supportsInterface",
      "outputs": [
        {
          "internalType": "bool",
          "name": "",
          "type": "bool"
        }
      ],
      "stateMutability": "view",
      "type": "function",
      "constant": true
    },
    {
      "inputs": [],
      "name": "symbol",
      "outputs": [
        {
          "internalType": "string",
          "name": "",
          "type": "string"
        }
      ],
      "stateMutability": "view",
      "type": "function",
      "constant": true
    },
    {
      "inputs": [
        {
          "internalType": "uint256",
          "name": "index",
          "type": "uint256"
        }
      ],
      "name": "tokenByIndex",
      "outputs": [
        {
          "internalType": "uint256",
          "name": "",
          "type": "uint256"
        }
      ],
      "stateMutability": "view",
      "type": "function",
      "constant": true
    },
    {
      "inputs": [
        {
          "internalType": "address",
          "name": "owner",
          "type": "address"
        },
        {
          "internalType": "uint256",
          "name": "index",
          "type": "uint256"
        }
      ],
      "name": "tokenOfOwnerByIndex",
      "outputs": [
        {
          "internalType": "uint256",
          "name": "",
          "type": "uint256"
        }
      ],
      "stateMutability": "view",
      "type": "function",
      "constant": true
    },
    {
      "inputs": [
        {
          "internalType": "uint256",
          "name": "tokenId",
          "type": "uint256"
        }
      ],
      "name": "tokenURI",
      "outputs": [
        {
          "internalType": "string",
          "name": "",
          "type": "string"
        }
      ],
      "stateMutability": "view",
      "type": "function",
      "constant": true
    },
    {
      "inputs": [],
      "name": "totalSupply",
      "outputs": [
        {
          "internalType": "uint256",
          "name": "",
          "type": "uint256"
        }
      ],
      "stateMutability": "view",
      "type": "function",
      "constant": true
    },
    {
      "inputs": [
        {
          "internalType": "address",
          "name": "from",
          "type": "address"
        },
        {
          "internalType": "address",
          "name": "to",
          "type": "address"
        },
        {
          "internalType": "uint256",
          "name": "tokenId",
          "type": "uint256"
        }
      ],
      "name": "transferFrom",
      "outputs": [],
      "stateMutability": "nonpayable",
      "type": "function"
    },
    {
      "inputs": [
        {
          "internalType": "string",
          "name": "_title",
          "type": "string"
        },
        {
          "internalType": "string",
          "name": "_description",
          "type": "string"
        },
        {
          "internalType": "string",
          "name": "_imageUrl",
          "type": "string"
        },
        {
          "internalType": "uint256",
          "name": "_price",
          "type": "uint256"
        },
        {
          "internalType": "uint256",
          "name": "_date",
          "type": "uint256"
        },
        {
          "internalType": "string",
          "name": "_dimensions",
          "type": "string"
        }
      ],
      "name": "createArtwork",
      "outputs": [],
      "stateMutability": "nonpayable",
      "type": "function"
    },
    {
      "inputs": [
        {
          "internalType": "uint256",
          "name": "artworkId",
          "type": "uint256"
        }
      ],
      "name": "buyArtwork",
      "outputs": [],
      "stateMutability": "payable",
      "type": "function",
      "payable": true
    }
  ],
  "bytecode": "0x608060405234801562000010575f80fd5b506040518060400160405280600781526020017f417274776f726b000000000000000000000000000000000000000000000000008152506040518060400160405280600381526020017f4152540000000000000000000000000000000000000000000000000000000000815250815f90816200008d91906200030c565b5080600190816200009f91906200030c565b505050620003f0565b5f81519050919050565b7f4e487b71000000000000000000000000000000000000000000000000000000005f52604160045260245ffd5b7f4e487b71000000000000000000000000000000000000000000000000000000005f52602260045260245ffd5b5f60028204905060018216806200012457607f821691505b6020821081036200013a5762000139620000df565b5b50919050565b5f819050815f5260205f209050919050565b5f6020601f8301049050919050565b5f82821b905092915050565b5f600883026200019e7fffffffffffffffffffffffffffffffffffffffffffffffffffffffffffffffff8262000161565b620001aa868362000161565b95508019841693508086168417925050509392505050565b5f819050919050565b5f819050919050565b5f620001f4620001ee620001e884620001c2565b620001cb565b620001c2565b9050919050565b5f819050919050565b6200020f83620001d4565b620002276200021e82620001fb565b8484546200016d565b825550505050565b5f90565b6200023d6200022f565b6200024a81848462000204565b505050565b5b818110156200027157620002655f8262000233565b60018101905062000250565b5050565b601f821115620002c0576200028a8162000140565b620002958462000152565b81016020851015620002a5578190505b620002bd620002b48562000152565b8301826200024f565b50505b505050565b5f82821c905092915050565b5f620002e25f1984600802620002c5565b1980831691505092915050565b5f620002fc8383620002d1565b9150826002028217905092915050565b6200031782620000a8565b67ffffffffffffffff811115620003335762000332620000b2565b5b6200033f82546200010c565b6200034c82828562000275565b5f60209050601f83116001811462000382575f84156200036d578287015190505b620003798582620002ef565b865550620003e8565b601f198416620003928662000140565b5f5b82811015620003bb5784890151825560018201915060208501945060208101905062000394565b86831015620003db5784890151620003d7601f891682620002d1565b8355505b6001600288020188555050505b505050505050565b613a5a80620003fe5f395ff3fe608060405260043610610113575f3560e01c80634b6026731161009f578063a22cb46511610063578063a22cb465146103df578063b88d4fde14610407578063c87b56dd1461042f578063e44c3c4b1461046b578063e985e9c51461048757610113565b80634b602673146102bf5780634f6ccce7146103015780636352211e1461033d57806370a082311461037957806395d89b41146103b557610113565b806318160ddd116100e657806318160ddd146101e157806323b872dd1461020b5780632f745c591461023357806342842e0e1461026f57806346c02bd01461029757610113565b806301ffc9a71461011757806306fdde0314610153578063081812fc1461017d578063095ea7b3146101b9575b5f80fd5b348015610122575f80fd5b5061013d60048036038101906101389190612605565b6104c3565b60405161014a919061264a565b60405180910390f35b34801561015e575f80fd5b5061016761053c565b60405161017491906126ed565b60405180910390f35b348015610188575f80fd5b506101a3600480360381019061019e9190612740565b6105cb565b6040516101b091906127aa565b60405180910390f35b3480156101c4575f80fd5b506101df60048036038101906101da91906127ed565b61060d565b005b3480156101ec575f80fd5b506101f5610723565b604051610202919061283a565b60405180910390f35b348015610216575f80fd5b50610231600480360381019061022c9190612853565b61072f565b005b34801561023e575f80fd5b50610259600480360381019061025491906127ed565b61078f565b604051610266919061283a565b60405180910390f35b34801561027a575f80fd5b5061029560048036038101906102909190612853565b61082f565b005b3480156102a2575f80fd5b506102bd60048036038101906102b891906129cf565b61084e565b005b3480156102ca575f80fd5b506102e560048036038101906102e09190612740565b610963565b6040516102f89796959493929190612ac8565b60405180910390f35b34801561030c575f80fd5b5061032760048036038101906103229190612740565b610bd4565b604051610334919061283a565b60405180910390f35b348015610348575f80fd5b50610363600480360381019061035e9190612740565b610c42565b60405161037091906127aa565b60405180910390f35b348015610384575f80fd5b5061039f600480360381019061039a9190612b51565b610cc6565b6040516103ac919061283a565b60405180910390f35b3480156103c0575f80fd5b506103c9610d7a565b6040516103d691906126ed565b60405180910390f35b3480156103ea575f80fd5b5061040560048036038101906104009190612ba6565b610e0a565b005b348015610412575f80fd5b5061042d60048036038101906104289190612c82565b610e20565b005b34801561043a575f80fd5b5061045560048036038101906104509190612740565b610e82565b60405161046291906126ed565b60405180910390f35b61048560048036038101906104809190612740565b610ee7565b005b348015610492575f80fd5b506104ad60048036038101906104a89190612d02565b6112e2565b6040516104ba919061264a565b60405180910390f35b5f7f780e9d63000000000000000000000000000000000000000000000000000000007bffffffffffffffffffffffffffffffffffffffffffffffffffffffff1916827bffffffffffffffffffffffffffffffffffffffffffffffffffffffff19161480610535575061053482611370565b5b9050919050565b60605f805461054a90612d6d565b80601f016020809104026020016040519081016040528092919081815260200182805461057690612d6d565b80156105c15780601f10610598576101008083540402835291602001916105c1565b820191905f5260205f20905b8154815290600101906020018083116105a457829003601f168201915b5050505050905090565b5f6105d582611451565b60045f8381526020019081526020015f205f9054906101000a900473ffffffffffffffffffffffffffffffffffffffff169050919050565b5f61061782610c42565b90508073ffffffffffffffffffffffffffffffffffffffff168373ffffffffffffffffffffffffffffffffffffffff1603610687576040517f08c379a000000000000000000000000000000000000000000000000000000000815260040161067e90612e0d565b60405180910390fd5b8073ffffffffffffffffffffffffffffffffffffffff166106a661149c565b73ffffffffffffffffffffffffffffffffffffffff1614806106d557506106d4816106cf61149c565b6112e2565b5b610714576040517f08c379a000000000000000000000000000000000000000000000000000000000815260040161070b90612e9b565b60405180910390fd5b61071e83836114a3565b505050565b5f600880549050905090565b61074061073a61149c565b82611559565b61077f576040517f08c379a000000000000000000000000000000000000000000000000000000000815260040161077690612f29565b60405180910390fd5b61078a8383836115ed565b505050565b5f61079983610cc6565b82106107da576040517f08c379a00000000000000000000000000000000000000000000000000000000081526004016107d190612fb7565b60405180910390fd5b60065f8473ffffffffffffffffffffffffffffffffffffffff1673ffffffffffffffffffffffffffffffffffffffff1681526020019081526020015f205f8381526020019081526020015f2054905092915050565b61084983838360405180602001604052805f815250610e20565b505050565b5f6040518060e001604052808881526020018781526020018681526020018581526020015f15158152602001848152602001838152509050600a81908060018154018082558091505060019003905f5260205f2090600702015f909190919091505f820151815f0190816108c29190613172565b5060208201518160010190816108d89190613172565b5060408201518160020190816108ee9190613172565b50606082015181600301556080820151816004015f6101000a81548160ff02191690831515021790555060a0820151816005015560c08201518160060190816109379190613172565b5050505f6001600a8054905061094d919061326e565b905061095933826118d9565b5050505050505050565b600a8181548110610972575f80fd5b905f5260205f2090600702015f91509050805f01805461099190612d6d565b80601f01602080910402602001604051908101604052809291908181526020018280546109bd90612d6d565b8015610a085780601f106109df57610100808354040283529160200191610a08565b820191905f5260205f20905b8154815290600101906020018083116109eb57829003601f168201915b505050505090806001018054610a1d90612d6d565b80601f0160208091040260200160405190810160405280929190818152602001828054610a4990612d6d565b8015610a945780601f10610a6b57610100808354040283529160200191610a94565b820191905f5260205f20905b815481529060010190602001808311610a7757829003601f168201915b505050505090806002018054610aa990612d6d565b80601f0160208091040260200160405190810160405280929190818152602001828054610ad590612d6d565b8015610b205780601f10610af757610100808354040283529160200191610b20565b820191905f5260205f20905b815481529060010190602001808311610b0357829003601f168201915b505050505090806003015490806004015f9054906101000a900460ff1690806005015490806006018054610b5390612d6d565b80601f0160208091040260200160405190810160405280929190818152602001828054610b7f90612d6d565b8015610bca5780601f10610ba157610100808354040283529160200191610bca565b820191905f5260205f20905b815481529060010190602001808311610bad57829003601f168201915b5050505050905087565b5f610bdd610723565b8210610c1e576040517f08c379a0000000000000000000000000000000000000000000000000000000008152600401610c1590613311565b60405180910390fd5b60088281548110610c3257610c3161332f565b5b905f5260205f2001549050919050565b5f80610c4d83611aec565b90505f73ffffffffffffffffffffffffffffffffffffffff168173ffffffffffffffffffffffffffffffffffffffff1603610cbd576040517f08c379a0000000000000000000000000000000000000000000000000000000008152600401610cb4906133a6565b60405180910390fd5b80915050919050565b5f8073ffffffffffffffffffffffffffffffffffffffff168273ffffffffffffffffffffffffffffffffffffffff1603610d35576040517f08c379a0000000000000000000000000000000000000000000000000000000008152600401610d2c90613434565b60405180910390fd5b60035f8373ffffffffffffffffffffffffffffffffffffffff1673ffffffffffffffffffffffffffffffffffffffff1681526020019081526020015f20549050919050565b606060018054610d8990612d6d565b80601f0160208091040260200160405190810160405280929190818152602001828054610db590612d6d565b8015610e005780601f10610dd757610100808354040283529160200191610e00565b820191905f5260205f20905b815481529060010190602001808311610de357829003601f168201915b5050505050905090565b610e1c610e1561149c565b8383611b25565b5050565b610e31610e2b61149c565b83611559565b610e70576040517f08c379a0000000000000000000000000000000000000000000000000000000008152600401610e6790612f29565b60405180910390fd5b610e7c84848484611c8c565b50505050565b6060610e8d82611451565b5f610e96611ce8565b90505f815111610eb45760405180602001604052805f815250610edf565b80610ebe84611cfe565b604051602001610ecf92919061348c565b6040516020818303038152906040525b915050919050565b5f600a8281548110610efc57610efb61332f565b5b905f5260205f2090600702016040518060e00160405290815f82018054610f2290612d6d565b80601f0160208091040260200160405190810160405280929190818152602001828054610f4e90612d6d565b8015610f995780601f10610f7057610100808354040283529160200191610f99565b820191905f5260205f20905b815481529060010190602001808311610f7c57829003601f168201915b50505050508152602001600182018054610fb290612d6d565b80601f0160208091040260200160405190810160405280929190818152602001828054610fde90612d6d565b80156110295780601f1061100057610100808354040283529160200191611029565b820191905f5260205f20905b81548152906001019060200180831161100c57829003601f168201915b5050505050815260200160028201805461104290612d6d565b80601f016020809104026020016040519081016040528092919081815260200182805461106e90612d6d565b80156110b95780601f10611090576101008083540402835291602001916110b9565b820191905f5260205f20905b81548152906001019060200180831161109c57829003601f168201915b5050505050815260200160038201548152602001600482015f9054906101000a900460ff161515151581526020016005820154815260200160068201805461110090612d6d565b80601f016020809104026020016040519081016040528092919081815260200182805461112c90612d6d565b80156111775780601f1061114e57610100808354040283529160200191611177565b820191905f5260205f20905b81548152906001019060200180831161115a57829003601f168201915b5050505050815250509050806060015134146111c8576040517f08c379a00000000000000000000000000000000000000000000000000000000081526004016111bf906134f9565b60405180910390fd5b80608001511561120d576040517f08c379a000000000000000000000000000000000000000000000000000000000815260040161120490613561565b60405180910390fd5b61122061121983610c42565b33846115ed565b600181608001901515908115158152505080600a83815481106112465761124561332f565b5b905f5260205f2090600702015f820151815f0190816112659190613172565b50602082015181600101908161127b9190613172565b5060408201518160020190816112919190613172565b50606082015181600301556080820151816004015f6101000a81548160ff02191690831515021790555060a0820151816005015560c08201518160060190816112da9190613172565b509050505050565b5f60055f8473ffffffffffffffffffffffffffffffffffffffff1673ffffffffffffffffffffffffffffffffffffffff1681526020019081526020015f205f8373ffffffffffffffffffffffffffffffffffffffff1673ffffffffffffffffffffffffffffffffffffffff1681526020019081526020015f205f9054906101000a900460ff16905092915050565b5f7f80ac58cd000000000000000000000000000000000000000000000000000000007bffffffffffffffffffffffffffffffffffffffffffffffffffffffff1916827bffffffffffffffffffffffffffffffffffffffffffffffffffffffff1916148061143a57507f5b5e139f000000000000000000000000000000000000000000000000000000007bffffffffffffffffffffffffffffffffffffffffffffffffffffffff1916827bffffffffffffffffffffffffffffffffffffffffffffffffffffffff1916145b8061144a575061144982611dc8565b5b9050919050565b61145a81611e31565b611499576040517f08c379a0000000000000000000000000000000000000000000000000000000008152600401611490906133a6565b60405180910390fd5b50565b5f33905090565b8160045f8381526020019081526020015f205f6101000a81548173ffffffffffffffffffffffffffffffffffffffff021916908373ffffffffffffffffffffffffffffffffffffffff160217905550808273ffffffffffffffffffffffffffffffffffffffff1661151383610c42565b73ffffffffffffffffffffffffffffffffffffffff167f8c5be1e5ebec7d5bd14f71427d1e84f3dd0314c0f7b2291e5b200ac8c7c3b92560405160405180910390a45050565b5f8061156483610c42565b90508073ffffffffffffffffffffffffffffffffffffffff168473ffffffffffffffffffffffffffffffffffffffff1614806115a657506115a581856112e2565b5b806115e457508373ffffffffffffffffffffffffffffffffffffffff166115cc846105cb565b73ffffffffffffffffffffffffffffffffffffffff16145b91505092915050565b8273ffffffffffffffffffffffffffffffffffffffff1661160d82610c42565b73ffffffffffffffffffffffffffffffffffffffff1614611663576040517f08c379a000000000000000000000000000000000000000000000000000000000815260040161165a906135ef565b60405180910390fd5b5f73ffffffffffffffffffffffffffffffffffffffff168273ffffffffffffffffffffffffffffffffffffffff16036116d1576040517f08c379a00000000000000000000000000000000000000000000000000000000081526004016116c89061367d565b60405180910390fd5b6116de8383836001611e71565b8273ffffffffffffffffffffffffffffffffffffffff166116fe82610c42565b73ffffffffffffffffffffffffffffffffffffffff1614611754576040517f08c379a000000000000000000000000000000000000000000000000000000000815260040161174b906135ef565b60405180910390fd5b60045f8281526020019081526020015f205f6101000a81549073ffffffffffffffffffffffffffffffffffffffff0219169055600160035f8573ffffffffffffffffffffffffffffffffffffffff1673ffffffffffffffffffffffffffffffffffffffff1681526020019081526020015f205f8282540392505081905550600160035f8473ffffffffffffffffffffffffffffffffffffffff1673ffffffffffffffffffffffffffffffffffffffff1681526020019081526020015f205f82825401925050819055508160025f8381526020019081526020015f205f6101000a81548173ffffffffffffffffffffffffffffffffffffffff021916908373ffffffffffffffffffffffffffffffffffffffff160217905550808273ffffffffffffffffffffffffffffffffffffffff168473ffffffffffffffffffffffffffffffffffffffff167fddf252ad1be2c89b69c2b068fc378daa952ba7f163c4a11628f55a4df523b3ef60405160405180910390a46118d48383836001611fcc565b505050565b5f73ffffffffffffffffffffffffffffffffffffffff168273ffffffffffffffffffffffffffffffffffffffff1603611947576040517f08c379a000000000000000000000000000000000000000000000000000000000815260040161193e906136e5565b60405180910390fd5b61195081611e31565b15611990576040517f08c379a00000000000000000000000000000000000000000000000000000000081526004016119879061374d565b60405180910390fd5b61199d5f83836001611e71565b6119a681611e31565b156119e6576040517f08c379a00000000000000000000000000000000000000000000000000000000081526004016119dd9061374d565b60405180910390fd5b600160035f8473ffffffffffffffffffffffffffffffffffffffff1673ffffffffffffffffffffffffffffffffffffffff1681526020019081526020015f205f82825401925050819055508160025f8381526020019081526020015f205f6101000a81548173ffffffffffffffffffffffffffffffffffffffff021916908373ffffffffffffffffffffffffffffffffffffffff160217905550808273ffffffffffffffffffffffffffffffffffffffff165f73ffffffffffffffffffffffffffffffffffffffff167fddf252ad1be2c89b69c2b068fc378daa952ba7f163c4a11628f55a4df523b3ef60405160405180910390a4611ae85f83836001611fcc565b5050565b5f60025f8381526020019081526020015f205f9054906101000a900473ffffffffffffffffffffffffffffffffffffffff169050919050565b8173ffffffffffffffffffffffffffffffffffffffff168373ffffffffffffffffffffffffffffffffffffffff1603611b93576040517f08c379a0000000000000000000000000000000000000000000000000000000008152600401611b8a906137b5565b60405180910390fd5b8060055f8573ffffffffffffffffffffffffffffffffffffffff1673ffffffffffffffffffffffffffffffffffffffff1681526020019081526020015f205f8473ffffffffffffffffffffffffffffffffffffffff1673ffffffffffffffffffffffffffffffffffffffff1681526020019081526020015f205f6101000a81548160ff0219169083151502179055508173ffffffffffffffffffffffffffffffffffffffff168373ffffffffffffffffffffffffffffffffffffffff167f17307eab39ab6107e8899845ad3d59bd9653f200f220920489ca2b5937696c3183604051611c7f919061264a565b60405180910390a3505050565b611c978484846115ed565b611ca384848484611fd2565b611ce2576040517f08c379a0000000000000000000000000000000000000000000000000000000008152600401611cd990613843565b60405180910390fd5b50505050565b606060405180602001604052805f815250905090565b60605f6001611d0c84612154565b0190505f8167ffffffffffffffff811115611d2a57611d296128ab565b5b6040519080825280601f01601f191660200182016040528015611d5c5781602001600182028036833780820191505090505b5090505f82602001820190505b600115611dbd578080600190039150507f3031323334353637383961626364656600000000000000000000000000000000600a86061a8153600a8581611db257611db1613861565b5b0494505f8503611d69575b819350505050919050565b5f7f01ffc9a7000000000000000000000000000000000000000000000000000000007bffffffffffffffffffffffffffffffffffffffffffffffffffffffff1916827bffffffffffffffffffffffffffffffffffffffffffffffffffffffff1916149050919050565b5f8073ffffffffffffffffffffffffffffffffffffffff16611e5283611aec565b73ffffffffffffffffffffffffffffffffffffffff1614159050919050565b611e7d848484846122a5565b6001811115611ec1576040517f08c379a0000000000000000000000000000000000000000000000000000000008152600401611eb8906138fe565b60405180910390fd5b5f8290505f73ffffffffffffffffffffffffffffffffffffffff168573ffffffffffffffffffffffffffffffffffffffff1603611f0657611f01816122ab565b611f45565b8373ffffffffffffffffffffffffffffffffffffffff168573ffffffffffffffffffffffffffffffffffffffff1614611f4457611f4385826122ef565b5b5b5f73ffffffffffffffffffffffffffffffffffffffff168473ffffffffffffffffffffffffffffffffffffffff1603611f8657611f8181612445565b611fc5565b8473ffffffffffffffffffffffffffffffffffffffff168473ffffffffffffffffffffffffffffffffffffffff1614611fc457611fc38482612505565b5b5b5050505050565b50505050565b5f611ff28473ffffffffffffffffffffffffffffffffffffffff1661257d565b15612147578373ffffffffffffffffffffffffffffffffffffffff1663150b7a0261201b61149c565b8786866040518563ffffffff1660e01b815260040161203d949392919061396e565b6020604051808303815f875af192505050801561207857506040513d601f19601f8201168201806040525081019061207591906139cc565b60015b6120f7573d805f81146120a6576040519150601f19603f3d011682016040523d82523d5f602084013e6120ab565b606091505b505f8151036120ef576040517f08c379a00000000000000000000000000000000000000000000000000000000081526004016120e690613843565b60405180910390fd5b805181602001fd5b63150b7a0260e01b7bffffffffffffffffffffffffffffffffffffffffffffffffffffffff1916817bffffffffffffffffffffffffffffffffffffffffffffffffffffffff19161491505061214c565b600190505b949350505050565b5f805f90507a184f03e93ff9f4daa797ed6e38ed64bf6a1f01000000000000000083106121b0577a184f03e93ff9f4daa797ed6e38ed64bf6a1f01000000000000000083816121a6576121a5613861565b5b0492506040810190505b6d04ee2d6d415b85acef810000000083106121ed576d04ee2d6d415b85acef810000000083816121e3576121e2613861565b5b0492506020810190505b662386f26fc10000831061221c57662386f26fc10000838161221257612211613861565b5b0492506010810190505b6305f5e1008310612245576305f5e100838161223b5761223a613861565b5b0492506008810190505b612710831061226a5761271083816122605761225f613861565b5b0492506004810190505b6064831061228d576064838161228357612282613861565b5b0492506002810190505b600a831061229c576001810190505b80915050919050565b50505050565b60088054905060095f8381526020019081526020015f2081905550600881908060018154018082558091505060019003905f5260205f20015f909190919091505550565b5f60016122fb84610cc6565b612305919061326e565b90505f60075f8481526020019081526020015f205490508181146123dc575f60065f8673ffffffffffffffffffffffffffffffffffffffff1673ffffffffffffffffffffffffffffffffffffffff1681526020019081526020015f205f8481526020019081526020015f205490508060065f8773ffffffffffffffffffffffffffffffffffffffff1673ffffffffffffffffffffffffffffffffffffffff1681526020019081526020015f205f8481526020019081526020015f20819055508160075f8381526020019081526020015f2081905550505b60075f8481526020019081526020015f205f905560065f8573ffffffffffffffffffffffffffffffffffffffff1673ffffffffffffffffffffffffffffffffffffffff1681526020019081526020015f205f8381526020019081526020015f205f905550505050565b5f6001600880549050612458919061326e565b90505f60095f8481526020019081526020015f205490505f600883815481106124845761248361332f565b5b905f5260205f200154905080600883815481106124a4576124a361332f565b5b905f5260205f2001819055508160095f8381526020019081526020015f208190555060095f8581526020019081526020015f205f905560088054806124ec576124eb6139f7565b5b600190038181905f5260205f20015f9055905550505050565b5f61250f83610cc6565b90508160065f8573ffffffffffffffffffffffffffffffffffffffff1673ffffffffffffffffffffffffffffffffffffffff1681526020019081526020015f205f8381526020019081526020015f20819055508060075f8481526020019081526020015f2081905550505050565b5f808273ffffffffffffffffffffffffffffffffffffffff163b119050919050565b5f604051905090565b5f80fd5b5f80fd5b5f7fffffffff0000000000000000000000000000000000000000000000000000000082169050919050565b6125e4816125b0565b81146125ee575f80fd5b50565b5f813590506125ff816125db565b92915050565b5f6020828403121561261a576126196125a8565b5b5f612627848285016125f1565b91505092915050565b5f8115159050919050565b61264481612630565b82525050565b5f60208201905061265d5f83018461263b565b92915050565b5f81519050919050565b5f82825260208201905092915050565b5f5b8381101561269a57808201518184015260208101905061267f565b5f8484015250505050565b5f601f19601f8301169050919050565b5f6126bf82612663565b6126c9818561266d565b93506126d981856020860161267d565b6126e2816126a5565b840191505092915050565b5f6020820190508181035f83015261270581846126b5565b905092915050565b5f819050919050565b61271f8161270d565b8114612729575f80fd5b50565b5f8135905061273a81612716565b92915050565b5f60208284031215612755576127546125a8565b5b5f6127628482850161272c565b91505092915050565b5f73ffffffffffffffffffffffffffffffffffffffff82169050919050565b5f6127948261276b565b9050919050565b6127a48161278a565b82525050565b5f6020820190506127bd5f83018461279b565b92915050565b6127cc8161278a565b81146127d6575f80fd5b50565b5f813590506127e7816127c3565b92915050565b5f8060408385031215612803576128026125a8565b5b5f612810858286016127d9565b92505060206128218582860161272c565b9150509250929050565b6128348161270d565b82525050565b5f60208201905061284d5f83018461282b565b92915050565b5f805f6060848603121561286a576128696125a8565b5b5f612877868287016127d9565b9350506020612888868287016127d9565b92505060406128998682870161272c565b9150509250925092565b5f80fd5b5f80fd5b7f4e487b71000000000000000000000000000000000000000000000000000000005f52604160045260245ffd5b6128e1826126a5565b810181811067ffffffffffffffff82111715612900576128ff6128ab565b5b80604052505050565b5f61291261259f565b905061291e82826128d8565b919050565b5f67ffffffffffffffff82111561293d5761293c6128ab565b5b612946826126a5565b9050602081019050919050565b828183375f83830152505050565b5f61297361296e84612923565b612909565b90508281526020810184848401111561298f5761298e6128a7565b5b61299a848285612953565b509392505050565b5f82601f8301126129b6576129b56128a3565b5b81356129c6848260208601612961565b91505092915050565b5f805f805f8060c087890312156129e9576129e86125a8565b5b5f87013567ffffffffffffffff811115612a0657612a056125ac565b5b612a1289828a016129a2565b965050602087013567ffffffffffffffff811115612a3357612a326125ac565b5b612a3f89828a016129a2565b955050604087013567ffffffffffffffff811115612a6057612a5f6125ac565b5b612a6c89828a016129a2565b9450506060612a7d89828a0161272c565b9350506080612a8e89828a0161272c565b92505060a087013567ffffffffffffffff811115612aaf57612aae6125ac565b5b612abb89828a016129a2565b9150509295509295509295565b5f60e0820190508181035f830152612ae0818a6126b5565b90508181036020830152612af481896126b5565b90508181036040830152612b0881886126b5565b9050612b17606083018761282b565b612b24608083018661263b565b612b3160a083018561282b565b81810360c0830152612b4381846126b5565b905098975050505050505050565b5f60208284031215612b6657612b656125a8565b5b5f612b73848285016127d9565b91505092915050565b612b8581612630565b8114612b8f575f80fd5b50565b5f81359050612ba081612b7c565b92915050565b5f8060408385031215612bbc57612bbb6125a8565b5b5f612bc9858286016127d9565b9250506020612bda85828601612b92565b9150509250929050565b5f67ffffffffffffffff821115612bfe57612bfd6128ab565b5b612c07826126a5565b9050602081019050919050565b5f612c26612c2184612be4565b612909565b905082815260208101848484011115612c4257612c416128a7565b5b612c4d848285612953565b509392505050565b5f82601f830112612c6957612c686128a3565b5b8135612c79848260208601612c14565b91505092915050565b5f805f8060808587031215612c9a57612c996125a8565b5b5f612ca7878288016127d9565b9450506020612cb8878288016127d9565b9350506040612cc98782880161272c565b925050606085013567ffffffffffffffff811115612cea57612ce96125ac565b5b612cf687828801612c55565b91505092959194509250565b5f8060408385031215612d1857612d176125a8565b5b5f612d25858286016127d9565b9250506020612d36858286016127d9565b9150509250929050565b7f4e487b71000000000000000000000000000000000000000000000000000000005f52602260045260245ffd5b5f6002820490506001821680612d8457607f821691505b602082108103612d9757612d96612d40565b5b50919050565b7f4552433732313a20617070726f76616c20746f2063757272656e74206f776e655f8201527f7200000000000000000000000000000000000000000000000000000000000000602082015250565b5f612df760218361266d565b9150612e0282612d9d565b604082019050919050565b5f6020820190508181035f830152612e2481612deb565b9050919050565b7f4552433732313a20617070726f76652063616c6c6572206973206e6f7420746f5f8201527f6b656e206f776e6572206f7220617070726f76656420666f7220616c6c000000602082015250565b5f612e85603d8361266d565b9150612e9082612e2b565b604082019050919050565b5f6020820190508181035f830152612eb281612e79565b9050919050565b7f4552433732313a2063616c6c6572206973206e6f7420746f6b656e206f776e655f8201527f72206f7220617070726f76656400000000000000000000000000000000000000602082015250565b5f612f13602d8361266d565b9150612f1e82612eb9565b604082019050919050565b5f6020820190508181035f830152612f4081612f07565b9050919050565b7f455243373231456e756d657261626c653a206f776e657220696e646578206f755f8201527f74206f6620626f756e6473000000000000000000000000000000000000000000602082015250565b5f612fa1602b8361266d565b9150612fac82612f47565b604082019050919050565b5f6020820190508181035f830152612fce81612f95565b9050919050565b5f819050815f5260205f209050919050565b5f6020601f8301049050919050565b5f82821b905092915050565b5f600883026130317fffffffffffffffffffffffffffffffffffffffffffffffffffffffffffffffff82612ff6565b61303b8683612ff6565b95508019841693508086168417925050509392505050565b5f819050919050565b5f61307661307161306c8461270d565b613053565b61270d565b9050919050565b5f819050919050565b61308f8361305c565b6130a361309b8261307d565b848454613002565b825550505050565b5f90565b6130b76130ab565b6130c2818484613086565b505050565b5b818110156130e5576130da5f826130af565b6001810190506130c8565b5050565b601f82111561312a576130fb81612fd5565b61310484612fe7565b81016020851015613113578190505b61312761311f85612fe7565b8301826130c7565b50505b505050565b5f82821c905092915050565b5f61314a5f198460080261312f565b1980831691505092915050565b5f613162838361313b565b9150826002028217905092915050565b61317b82612663565b67ffffffffffffffff811115613194576131936128ab565b5b61319e8254612d6d565b6131a98282856130e9565b5f60209050601f8311600181146131da575f84156131c8578287015190505b6131d28582613157565b865550613239565b601f1984166131e886612fd5565b5f5b8281101561320f578489015182556001820191506020850194506020810190506131ea565b8683101561322c5784890151613228601f89168261313b565b8355505b6001600288020188555050505b505050505050565b7f4e487b71000000000000000000000000000000000000000000000000000000005f52601160045260245ffd5b5f6132788261270d565b91506132838361270d565b925082820390508181111561329b5761329a613241565b5b92915050565b7f455243373231456e756d657261626c653a20676c6f62616c20696e646578206f5f8201527f7574206f6620626f756e64730000000000000000000000000000000000000000602082015250565b5f6132fb602c8361266d565b9150613306826132a1565b604082019050919050565b5f6020820190508181035f830152613328816132ef565b9050919050565b7f4e487b71000000000000000000000000000000000000000000000000000000005f52603260045260245ffd5b7f4552433732313a20696e76616c696420746f6b656e20494400000000000000005f82015250565b5f61339060188361266d565b915061339b8261335c565b602082019050919050565b5f6020820190508181035f8301526133bd81613384565b9050919050565b7f4552433732313a2061646472657373207a65726f206973206e6f7420612076615f8201527f6c6964206f776e65720000000000000000000000000000000000000000000000602082015250565b5f61341e60298361266d565b9150613429826133c4565b604082019050919050565b5f6020820190508181035f83015261344b81613412565b9050919050565b5f81905092915050565b5f61346682612663565b6134708185613452565b935061348081856020860161267d565b80840191505092915050565b5f613497828561345c565b91506134a3828461345c565b91508190509392505050565b7f54686520616d6f756e742073656e74206973206e6f7420636f72726563742e005f82015250565b5f6134e3601f8361266d565b91506134ee826134af565b602082019050919050565b5f6020820190508181035f830152613510816134d7565b9050919050565b7f54686520617274776f726b20697320616c726561647920736f6c642e000000005f82015250565b5f61354b601c8361266d565b915061355682613517565b602082019050919050565b5f6020820190508181035f8301526135788161353f565b9050919050565b7f4552433732313a207472616e736665722066726f6d20696e636f7272656374205f8201527f6f776e6572000000000000000000000000000000000000000000000000000000602082015250565b5f6135d960258361266d565b91506135e48261357f565b604082019050919050565b5f6020820190508181035f830152613606816135cd565b9050919050565b7f4552433732313a207472616e7366657220746f20746865207a65726f206164645f8201527f7265737300000000000000000000000000000000000000000000000000000000602082015250565b5f61366760248361266d565b91506136728261360d565b604082019050919050565b5f6020820190508181035f8301526136948161365b565b9050919050565b7f4552433732313a206d696e7420746f20746865207a65726f20616464726573735f82015250565b5f6136cf60208361266d565b91506136da8261369b565b602082019050919050565b5f6020820190508181035f8301526136fc816136c3565b9050919050565b7f4552433732313a20746f6b656e20616c7265616479206d696e746564000000005f82015250565b5f613737601c8361266d565b915061374282613703565b602082019050919050565b5f6020820190508181035f8301526137648161372b565b9050919050565b7f4552433732313a20617070726f766520746f2063616c6c6572000000000000005f82015250565b5f61379f60198361266d565b91506137aa8261376b565b602082019050919050565b5f6020820190508181035f8301526137cc81613793565b9050919050565b7f4552433732313a207472616e7366657220746f206e6f6e2045524337323152655f8201527f63656976657220696d706c656d656e7465720000000000000000000000000000602082015250565b5f61382d60328361266d565b9150613838826137d3565b604082019050919050565b5f6020820190508181035f83015261385a81613821565b9050919050565b7f4e487b71000000000000000000000000000000000000000000000000000000005f52601260045260245ffd5b7f455243373231456e756d657261626c653a20636f6e73656375746976652074725f8201527f616e7366657273206e6f7420737570706f727465640000000000000000000000602082015250565b5f6138e860358361266d565b91506138f38261388e565b604082019050919050565b5f6020820190508181035f830152613915816138dc565b9050919050565b5f81519050919050565b5f82825260208201905092915050565b5f6139408261391c565b61394a8185613926565b935061395a81856020860161267d565b613963816126a5565b840191505092915050565b5f6080820190506139815f83018761279b565b61398e602083018661279b565b61399b604083018561282b565b81810360608301526139ad8184613936565b905095945050505050565b5f815190506139c6816125db565b92915050565b5f602082840312156139e1576139e06125a8565b5b5f6139ee848285016139b8565b91505092915050565b7f4e487b71000000000000000000000000000000000000000000000000000000005f52603160045260245ffdfea2646970667358221220d15fcc39d2040fc1de433ac963497cd152019763d32ec2672e9a0deb57216c3064736f6c63430008140033",
  "immutableReferences": {},
  "source": "// SPDX-License-Identifier: MIT\npragma solidity ^0.8.20;\n\nimport \"@openzeppelin/contracts/token/ERC721/extensions/ERC721Enumerable.sol\";\n\n/// @title Contrat Artwork\n/// @dev Ce contrat permet la cration, l'achat et la gestion des uvres d'art sous forme de NFT\ncontract Artwork is ERC721Enumerable {\n\n    /// @notice Struct pour une uvre d'art\n    /// @param title Le titre de l'uvre\n    /// @param description La description de l'uvre\n    /// @param imageUrl L'URL de l'image de l'uvre\n    /// @param price Le prix de l'uvre\n    /// @param isSold Boolen indiquant si l'uvre a t vendue ou non\n    /// @param date La date de cration de l'uvre\n    /// @param dimensions Les dimensions de l'uvre\n    struct ArtworkDetails {\n        string title;\n        string description;\n        string imageUrl;\n        uint256 price;\n        bool isSold;\n        uint256 date;\n        string dimensions;\n    }\n\n    /// @notice Un tableau contenant toutes les uvres d'art\n    ArtworkDetails[] public artworks;\n\n    /// @notice Le constructeur du contrat\n    constructor() ERC721(\"Artwork\", \"ART\") {}\n\n    /// @notice Cre une nouvelle uvre d'art\n    /// @param _title Le titre de l'uvre\n    /// @param _description La description de l'uvre\n    /// @param _imageUrl L'URL de l'image de l'uvre\n    /// @param _price Le prix de l'uvre\n    /// @param _date La date de cration de l'uvre\n    /// @param _dimensions Les dimensions de l'uvre\n    function createArtwork(string memory _title, string memory _description, string memory _imageUrl, uint256 _price, uint256 _date, string memory _dimensions) public {\n        ArtworkDetails memory newArtwork = ArtworkDetails({\n            title: _title,\n            description: _description,\n            imageUrl: _imageUrl,\n            price: _price,\n            isSold: false,\n            date: _date,\n            dimensions: _dimensions\n        });\n\n        artworks.push(newArtwork);\n        uint artworkId = artworks.length - 1;\n\n        // Mint un nouveau token pour le crateur de l'uvre\n        _mint(msg.sender, artworkId);\n    }\n\n    /// @notice Achte une uvre d'art\n    /// @param artworkId L'identifiant de l'uvre  acheter\n    function buyArtwork(uint artworkId) public payable {\n        ArtworkDetails memory artwork = artworks[artworkId];\n\n        // Vrifie que le montant envoy est correct et que l'uvre n'a pas dj t vendue\n        require(msg.value == artwork.price, \"The amount sent is not correct.\");\n        require(!artwork.isSold, \"The artwork is already sold.\");\n\n        // Transfert l'ownership du token correspondant  l'uvre\n        _transfer(ownerOf(artworkId), msg.sender, artworkId);\n\n        artwork.isSold = true;\n        artworks[artworkId] = artwork;\n    }\n}\n",
  "sourcePath": "/home/mathis/Apotheose-Alyra/my-dapp/Backend-Smart Contracts/contracts/Artwork.sol",
  "compiler": {
    "name": "solc",
    "version": "0.8.20+commit.a1b79de6.Emscripten.clang"
  },
  "schemaVersion": "3.4.14",
  "updatedAt": "2023-07-22T03:35:39.673Z",
  "networkType": "ethereum",
  "devdoc": {
    "details": "Ce contrat permet la cration, l'achat et la gestion des uvres d'art sous forme de NFT",
    "events": {
      "Approval(address,address,uint256)": {
        "details": "Emitted when `owner` enables `approved` to manage the `tokenId` token."
      },
      "ApprovalForAll(address,address,bool)": {
        "details": "Emitted when `owner` enables or disables (`approved`) `operator` to manage all of its assets."
      },
      "Transfer(address,address,uint256)": {
        "details": "Emitted when `tokenId` token is transferred from `from` to `to`."
      }
    },
    "kind": "dev",
    "methods": {
      "approve(address,uint256)": {
        "details": "See {IERC721-approve}."
      },
      "balanceOf(address)": {
        "details": "See {IERC721-balanceOf}."
      },
      "buyArtwork(uint256)": {
        "params": {
          "artworkId": "L'identifiant de l'uvre  acheter"
        }
      },
      "createArtwork(string,string,string,uint256,uint256,string)": {
        "params": {
          "_date": "La date de cration de l'uvre",
          "_description": "La description de l'uvre",
          "_dimensions": "Les dimensions de l'uvre",
          "_imageUrl": "L'URL de l'image de l'uvre",
          "_price": "Le prix de l'uvre",
          "_title": "Le titre de l'uvre"
        }
      },
      "getApproved(uint256)": {
        "details": "See {IERC721-getApproved}."
      },
      "isApprovedForAll(address,address)": {
        "details": "See {IERC721-isApprovedForAll}."
      },
      "name()": {
        "details": "See {IERC721Metadata-name}."
      },
      "ownerOf(uint256)": {
        "details": "See {IERC721-ownerOf}."
      },
      "safeTransferFrom(address,address,uint256)": {
        "details": "See {IERC721-safeTransferFrom}."
      },
      "safeTransferFrom(address,address,uint256,bytes)": {
        "details": "See {IERC721-safeTransferFrom}."
      },
      "setApprovalForAll(address,bool)": {
        "details": "See {IERC721-setApprovalForAll}."
      },
      "supportsInterface(bytes4)": {
        "details": "See {IERC165-supportsInterface}."
      },
      "symbol()": {
        "details": "See {IERC721Metadata-symbol}."
      },
      "tokenByIndex(uint256)": {
        "details": "See {IERC721Enumerable-tokenByIndex}."
      },
      "tokenOfOwnerByIndex(address,uint256)": {
        "details": "See {IERC721Enumerable-tokenOfOwnerByIndex}."
      },
      "tokenURI(uint256)": {
        "details": "See {IERC721Metadata-tokenURI}."
      },
      "totalSupply()": {
        "details": "See {IERC721Enumerable-totalSupply}."
      },
      "transferFrom(address,address,uint256)": {
        "details": "See {IERC721-transferFrom}."
      }
    },
    "title": "Contrat Artwork",
    "version": 1
  },
  "userdoc": {
    "kind": "user",
    "methods": {
      "artworks(uint256)": {
        "notice": "Un tableau contenant toutes les uvres d'art"
      },
      "buyArtwork(uint256)": {
        "notice": "Achte une uvre d'art"
      },
      "constructor": {
        "notice": "Le constructeur du contrat"
      },
      "createArtwork(string,string,string,uint256,uint256,string)": {
        "notice": "Cre une nouvelle uvre d'art"
      }
    },
    "version": 1
  }
}