{
  "contractName": "Marketplace",
  "abi": [
    {
      "inputs": [],
      "name": "itemId",
      "outputs": [
        {
          "internalType": "uint256",
          "name": "",
          "type": "uint256"
        }
      ],
      "stateMutability": "view",
      "type": "function",
      "constant": true
    },
    {
      "inputs": [
        {
          "internalType": "uint256",
          "name": "",
          "type": "uint256"
        }
      ],
      "name": "items",
      "outputs": [
        {
          "internalType": "uint256",
          "name": "itemId",
          "type": "uint256"
        },
        {
          "internalType": "address",
          "name": "nftContract",
          "type": "address"
        },
        {
          "internalType": "uint256",
          "name": "tokenId",
          "type": "uint256"
        },
        {
          "internalType": "address payable",
          "name": "seller",
          "type": "address"
        },
        {
          "internalType": "address payable",
          "name": "owner",
          "type": "address"
        },
        {
          "internalType": "uint256",
          "name": "price",
          "type": "uint256"
        },
        {
          "internalType": "bool",
          "name": "sold",
          "type": "bool"
        },
        {
          "internalType": "string",
          "name": "name",
          "type": "string"
        },
        {
          "internalType": "string",
          "name": "description",
          "type": "string"
        }
      ],
      "stateMutability": "view",
      "type": "function",
      "constant": true
    },
    {
      "inputs": [
        {
          "internalType": "address",
          "name": "nftContract",
          "type": "address"
        },
        {
          "internalType": "uint256",
          "name": "tokenId",
          "type": "uint256"
        },
        {
          "internalType": "uint256",
          "name": "price",
          "type": "uint256"
        },
        {
          "internalType": "string",
          "name": "name",
          "type": "string"
        },
        {
          "internalType": "string",
          "name": "description",
          "type": "string"
        }
      ],
      "name": "listNFT",
      "outputs": [],
      "stateMutability": "nonpayable",
      "type": "function"
    },
    {
      "inputs": [
        {
          "internalType": "uint256",
          "name": "_itemId",
          "type": "uint256"
        }
      ],
      "name": "buyNFT",
      "outputs": [],
      "stateMutability": "payable",
      "type": "function",
      "payable": true
    },
    {
      "inputs": [],
      "name": "fetchMarketItems",
      "outputs": [
        {
          "components": [
            {
              "internalType": "uint256",
              "name": "itemId",
              "type": "uint256"
            },
            {
              "internalType": "address",
              "name": "nftContract",
              "type": "address"
            },
            {
              "internalType": "uint256",
              "name": "tokenId",
              "type": "uint256"
            },
            {
              "internalType": "address payable",
              "name": "seller",
              "type": "address"
            },
            {
              "internalType": "address payable",
              "name": "owner",
              "type": "address"
            },
            {
              "internalType": "uint256",
              "name": "price",
              "type": "uint256"
            },
            {
              "internalType": "bool",
              "name": "sold",
              "type": "bool"
            },
            {
              "internalType": "string",
              "name": "name",
              "type": "string"
            },
            {
              "internalType": "string",
              "name": "description",
              "type": "string"
            }
          ],
          "internalType": "struct Marketplace.Item[]",
          "name": "",
          "type": "tuple[]"
        }
      ],
      "stateMutability": "view",
      "type": "function",
      "constant": true
    }
  ],
  "bytecode": "0x608060405234801561000f575f80fd5b5060015f819055506116e8806100245f395ff3fe608060405260043610610049575f3560e01c80630f08efe01461004d57806351ed828814610077578063bfb231d214610093578063ca6158cb146100d7578063eb4c2cd614610101575b5f80fd5b348015610058575f80fd5b50610061610129565b60405161006e9190610d8c565b60405180910390f35b610091600480360381019061008c9190610de7565b6103dc565b005b34801561009e575f80fd5b506100b960048036038101906100b49190610de7565b61064c565b6040516100ce99989796959493929190610e96565b60405180910390f35b3480156100e2575f80fd5b506100eb61081a565b6040516100f89190610f2f565b60405180910390f35b34801561010c575f80fd5b506101276004803603810190610122919061109e565b610820565b005b60606001805480602002602001604051908101604052809291908181526020015f905b828210156103d3578382905f5260205f209060090201604051806101200160405290815f8201548152602001600182015f9054906101000a900473ffffffffffffffffffffffffffffffffffffffff1673ffffffffffffffffffffffffffffffffffffffff1673ffffffffffffffffffffffffffffffffffffffff16815260200160028201548152602001600382015f9054906101000a900473ffffffffffffffffffffffffffffffffffffffff1673ffffffffffffffffffffffffffffffffffffffff1673ffffffffffffffffffffffffffffffffffffffff168152602001600482015f9054906101000a900473ffffffffffffffffffffffffffffffffffffffff1673ffffffffffffffffffffffffffffffffffffffff1673ffffffffffffffffffffffffffffffffffffffff16815260200160058201548152602001600682015f9054906101000a900460ff161515151581526020016007820180546102b49061117a565b80601f01602080910402602001604051908101604052809291908181526020018280546102e09061117a565b801561032b5780601f106103025761010080835404028352916020019161032b565b820191905f5260205f20905b81548152906001019060200180831161030e57829003601f168201915b505050505081526020016008820180546103449061117a565b80601f01602080910402602001604051908101604052809291908181526020018280546103709061117a565b80156103bb5780601f10610392576101008083540402835291602001916103bb565b820191905f5260205f20905b81548152906001019060200180831161039e57829003601f168201915b5050505050815250508152602001906001019061014c565b50505050905090565b6103e4610a97565b600180549050811061042b576040517f08c379a0000000000000000000000000000000000000000000000000000000008152600401610422906111f4565b60405180910390fd5b5f600182815481106104405761043f611212565b5b905f5260205f2090600902019050806006015f9054906101000a900460ff161561049f576040517f08c379a000000000000000000000000000000000000000000000000000000000815260040161049690611289565b60405180910390fd5b5f816005015490508034146104e9576040517f08c379a00000000000000000000000000000000000000000000000000000000081526004016104e090611317565b60405180910390fd5b33826004015f6101000a81548173ffffffffffffffffffffffffffffffffffffffff021916908373ffffffffffffffffffffffffffffffffffffffff1602179055506001826006015f6101000a81548160ff021916908315150217905550816003015f9054906101000a900473ffffffffffffffffffffffffffffffffffffffff1673ffffffffffffffffffffffffffffffffffffffff166108fc3490811502906040515f60405180830381858888f193505050501580156105ad573d5f803e3d5ffd5b50816001015f9054906101000a900473ffffffffffffffffffffffffffffffffffffffff1673ffffffffffffffffffffffffffffffffffffffff166323b872dd303385600201546040518463ffffffff1660e01b815260040161061293929190611335565b5f604051808303815f87803b158015610629575f80fd5b505af115801561063b573d5f803e3d5ffd5b505050505050610649610ae4565b50565b6001818154811061065b575f80fd5b905f5260205f2090600902015f91509050805f015490806001015f9054906101000a900473ffffffffffffffffffffffffffffffffffffffff1690806002015490806003015f9054906101000a900473ffffffffffffffffffffffffffffffffffffffff1690806004015f9054906101000a900473ffffffffffffffffffffffffffffffffffffffff1690806005015490806006015f9054906101000a900460ff169080600701805461070d9061117a565b80601f01602080910402602001604051908101604052809291908181526020018280546107399061117a565b80156107845780601f1061075b57610100808354040283529160200191610784565b820191905f5260205f20905b81548152906001019060200180831161076757829003601f168201915b5050505050908060080180546107999061117a565b80601f01602080910402602001604051908101604052809291908181526020018280546107c59061117a565b80156108105780601f106107e757610100808354040283529160200191610810565b820191905f5260205f20905b8154815290600101906020018083116107f357829003601f168201915b5050505050905089565b60025481565b5f60405180610120016040528060025481526020018773ffffffffffffffffffffffffffffffffffffffff1681526020018681526020013373ffffffffffffffffffffffffffffffffffffffff1681526020015f73ffffffffffffffffffffffffffffffffffffffff1681526020018581526020015f15158152602001848152602001838152509050600181908060018154018082558091505060019003905f5260205f2090600902015f909190919091505f820151815f01556020820151816001015f6101000a81548173ffffffffffffffffffffffffffffffffffffffff021916908373ffffffffffffffffffffffffffffffffffffffff160217905550604082015181600201556060820151816003015f6101000a81548173ffffffffffffffffffffffffffffffffffffffff021916908373ffffffffffffffffffffffffffffffffffffffff1602179055506080820151816004015f6101000a81548173ffffffffffffffffffffffffffffffffffffffff021916908373ffffffffffffffffffffffffffffffffffffffff16021790555060a0820151816005015560c0820151816006015f6101000a81548160ff02191690831515021790555060e08201518160070190816109f49190611507565b50610100820151816008019081610a0b9190611507565b50505060025f815480929190610a2090611603565b91905055508573ffffffffffffffffffffffffffffffffffffffff166323b872dd3330886040518463ffffffff1660e01b8152600401610a6293929190611335565b5f604051808303815f87803b158015610a79575f80fd5b505af1158015610a8b573d5f803e3d5ffd5b50505050505050505050565b60025f5403610adb576040517f08c379a0000000000000000000000000000000000000000000000000000000008152600401610ad290611694565b60405180910390fd5b60025f81905550565b60015f81905550565b5f81519050919050565b5f82825260208201905092915050565b5f819050602082019050919050565b5f819050919050565b610b2881610b16565b82525050565b5f73ffffffffffffffffffffffffffffffffffffffff82169050919050565b5f610b5782610b2e565b9050919050565b610b6781610b4d565b82525050565b5f610b7782610b2e565b9050919050565b610b8781610b6d565b82525050565b5f8115159050919050565b610ba181610b8d565b82525050565b5f81519050919050565b5f82825260208201905092915050565b5f5b83811015610bde578082015181840152602081019050610bc3565b5f8484015250505050565b5f601f19601f8301169050919050565b5f610c0382610ba7565b610c0d8185610bb1565b9350610c1d818560208601610bc1565b610c2681610be9565b840191505092915050565b5f61012083015f830151610c475f860182610b1f565b506020830151610c5a6020860182610b5e565b506040830151610c6d6040860182610b1f565b506060830151610c806060860182610b7e565b506080830151610c936080860182610b7e565b5060a0830151610ca660a0860182610b1f565b5060c0830151610cb960c0860182610b98565b5060e083015184820360e0860152610cd18282610bf9565b915050610100830151848203610100860152610ced8282610bf9565b9150508091505092915050565b5f610d058383610c31565b905092915050565b5f602082019050919050565b5f610d2382610aed565b610d2d8185610af7565b935083602082028501610d3f85610b07565b805f5b85811015610d7a5784840389528151610d5b8582610cfa565b9450610d6683610d0d565b925060208a01995050600181019050610d42565b50829750879550505050505092915050565b5f6020820190508181035f830152610da48184610d19565b905092915050565b5f604051905090565b5f80fd5b5f80fd5b610dc681610b16565b8114610dd0575f80fd5b50565b5f81359050610de181610dbd565b92915050565b5f60208284031215610dfc57610dfb610db5565b5b5f610e0984828501610dd3565b91505092915050565b610e1b81610b16565b82525050565b610e2a81610b4d565b82525050565b610e3981610b6d565b82525050565b610e4881610b8d565b82525050565b5f82825260208201905092915050565b5f610e6882610ba7565b610e728185610e4e565b9350610e82818560208601610bc1565b610e8b81610be9565b840191505092915050565b5f61012082019050610eaa5f83018c610e12565b610eb7602083018b610e21565b610ec4604083018a610e12565b610ed16060830189610e30565b610ede6080830188610e30565b610eeb60a0830187610e12565b610ef860c0830186610e3f565b81810360e0830152610f0a8185610e5e565b9050818103610100830152610f1f8184610e5e565b90509a9950505050505050505050565b5f602082019050610f425f830184610e12565b92915050565b610f5181610b4d565b8114610f5b575f80fd5b50565b5f81359050610f6c81610f48565b92915050565b5f80fd5b5f80fd5b7f4e487b71000000000000000000000000000000000000000000000000000000005f52604160045260245ffd5b610fb082610be9565b810181811067ffffffffffffffff82111715610fcf57610fce610f7a565b5b80604052505050565b5f610fe1610dac565b9050610fed8282610fa7565b919050565b5f67ffffffffffffffff82111561100c5761100b610f7a565b5b61101582610be9565b9050602081019050919050565b828183375f83830152505050565b5f61104261103d84610ff2565b610fd8565b90508281526020810184848401111561105e5761105d610f76565b5b611069848285611022565b509392505050565b5f82601f83011261108557611084610f72565b5b8135611095848260208601611030565b91505092915050565b5f805f805f60a086880312156110b7576110b6610db5565b5b5f6110c488828901610f5e565b95505060206110d588828901610dd3565b94505060406110e688828901610dd3565b935050606086013567ffffffffffffffff81111561110757611106610db9565b5b61111388828901611071565b925050608086013567ffffffffffffffff81111561113457611133610db9565b5b61114088828901611071565b9150509295509295909350565b7f4e487b71000000000000000000000000000000000000000000000000000000005f52602260045260245ffd5b5f600282049050600182168061119157607f821691505b6020821081036111a4576111a361114d565b5b50919050565b7f4974656d20646f6573206e6f74206578697374000000000000000000000000005f82015250565b5f6111de601383610e4e565b91506111e9826111aa565b602082019050919050565b5f6020820190508181035f83015261120b816111d2565b9050919050565b7f4e487b71000000000000000000000000000000000000000000000000000000005f52603260045260245ffd5b7f546865206974656d2068617320616c7265616479206265656e20736f6c6400005f82015250565b5f611273601e83610e4e565b915061127e8261123f565b602082019050919050565b5f6020820190508181035f8301526112a081611267565b9050919050565b7f506c65617365207375626d6974207468652061736b696e6720707269636520695f8201527f6e206f7264657220746f20636f6d706c65746520746865207075726368617365602082015250565b5f611301604083610e4e565b915061130c826112a7565b604082019050919050565b5f6020820190508181035f83015261132e816112f5565b9050919050565b5f6060820190506113485f830186610e21565b6113556020830185610e21565b6113626040830184610e12565b949350505050565b5f819050815f5260205f209050919050565b5f6020601f8301049050919050565b5f82821b905092915050565b5f600883026113c67fffffffffffffffffffffffffffffffffffffffffffffffffffffffffffffffff8261138b565b6113d0868361138b565b95508019841693508086168417925050509392505050565b5f819050919050565b5f61140b61140661140184610b16565b6113e8565b610b16565b9050919050565b5f819050919050565b611424836113f1565b61143861143082611412565b848454611397565b825550505050565b5f90565b61144c611440565b61145781848461141b565b505050565b5b8181101561147a5761146f5f82611444565b60018101905061145d565b5050565b601f8211156114bf576114908161136a565b6114998461137c565b810160208510156114a8578190505b6114bc6114b48561137c565b83018261145c565b50505b505050565b5f82821c905092915050565b5f6114df5f19846008026114c4565b1980831691505092915050565b5f6114f783836114d0565b9150826002028217905092915050565b61151082610ba7565b67ffffffffffffffff81111561152957611528610f7a565b5b611533825461117a565b61153e82828561147e565b5f60209050601f83116001811461156f575f841561155d578287015190505b61156785826114ec565b8655506115ce565b601f19841661157d8661136a565b5f5b828110156115a45784890151825560018201915060208501945060208101905061157f565b868310156115c157848901516115bd601f8916826114d0565b8355505b6001600288020188555050505b505050505050565b7f4e487b71000000000000000000000000000000000000000000000000000000005f52601160045260245ffd5b5f61160d82610b16565b91507fffffffffffffffffffffffffffffffffffffffffffffffffffffffffffffffff820361163f5761163e6115d6565b5b600182019050919050565b7f5265656e7472616e637947756172643a207265656e7472616e742063616c6c005f82015250565b5f61167e601f83610e4e565b91506116898261164a565b602082019050919050565b5f6020820190508181035f8301526116ab81611672565b905091905056fea2646970667358221220c9a9d405f1e66f0337075f573d9a1bc102a618c1f454f99a576aaa3a82f0ff4a64736f6c63430008140033",
  "immutableReferences": {},
  "source": "// SPDX-License-Identifier: MIT\npragma solidity ^0.8.20;\n\nimport \"@openzeppelin/contracts/token/ERC721/ERC721.sol\";\nimport \"@openzeppelin/contracts/security/ReentrancyGuard.sol\";\n\n/// @title Contrat Marketplace\n/// @dev Ce contrat gre les ventes et achats d'oeuvres d'art sur le march\ncontract Marketplace is ReentrancyGuard {\n    /// @notice Dfinition de la structure d'un article  vendre\n    /// @dev Un article est une uvre d'art reprsente par un token ERC721\n    struct Item {\n        uint itemId;                   // Identifiant unique de l'article\n        address nftContract;           // Adresse du contrat ERC721\n        uint256 tokenId;               // Identifiant du token reprsentant l'uvre d'art\n        address payable seller;        // Adresse du vendeur\n        address payable owner;         // Adresse du propritaire\n        uint256 price;                 // Prix de l'article\n        bool sold;                     // Statut de l'article (vendu ou non)\n        string name;                   // Nom de l'article\n        string description;            // Description de l'article\n    }\n\n    // Liste des articles\n    Item[] public items;\n    // Compteur pour l'ID de l'article\n    uint public itemId;\n\n    /// @notice Liste un NFT  vendre sur le march\n    /// @param nftContract Adresse du contrat ERC721\n    /// @param tokenId Identifiant du token\n    /// @param price Prix du token\n    /// @param name Nom de l'oeuvre\n    /// @param description Description de l'oeuvre\n    function listNFT(address nftContract, uint256 tokenId, uint256 price, string memory name, string memory description) public {\n        // Cration d'un nouvel article\n        Item memory newItem = Item({\n            itemId: itemId,\n            nftContract: nftContract,\n            tokenId: tokenId,\n            seller: payable(msg.sender),\n            owner: payable(address(0)),\n            price: price,\n            sold: false,\n            name: name,\n            description: description\n        });\n\n        // Ajout de l'article  la liste des articles\n        items.push(newItem);\n        itemId++;\n\n        // Transfert du token de l'expditeur vers le contrat\n        IERC721(nftContract).transferFrom(msg.sender, address(this), tokenId);\n    }\n\n    /// @notice Achte un NFT sur le march\n    /// @param _itemId Identifiant de l'article  acheter\n    function buyNFT(uint _itemId) public payable nonReentrant {\n    // Vrifie que l'lment existe\n    require(_itemId < items.length, \"Item does not exist\");\n\n    // Rcupre les dtails de l'article\n    Item storage item = items[_itemId];\n\n    // Vrifie que l'article n'a pas dj t vendu\n    require(!item.sold, \"The item has already been sold\");\n\n    // Rcupre le prix et vrifie que le montant envoy correspond au prix de l'article\n    uint price = item.price;\n    require(msg.value == price, \"Please submit the asking price in order to complete the purchase\");\n\n    // Met  jour le propritaire et le statut de l'article\n    item.owner = payable(msg.sender);\n    item.sold = true;\n\n    // Transfre le montant  l'ancien propritaire de l'article\n    item.seller.transfer(msg.value);\n\n    // Transfre le token de l'article au nouvel acheteur\n    IERC721(item.nftContract).transferFrom(address(this), msg.sender, item.tokenId);\n}\n\n\n    /// @notice Rcupre la liste des articles sur le march\n    /// @return Un tableau contenant tous les articles\n    function fetchMarketItems() public view returns (Item[] memory) {\n        return items;\n    }\n}\n",
  "sourcePath": "/home/mathis/Apotheose-Alyra/my-dapp/Backend-Smart Contracts/contracts/Marketplace.sol",
  "compiler": {
    "name": "solc",
    "version": "0.8.20+commit.a1b79de6.Emscripten.clang"
  },
  "schemaVersion": "3.4.14",
  "updatedAt": "2023-07-22T17:50:13.773Z",
  "networkType": "ethereum",
  "devdoc": {
    "details": "Ce contrat gre les ventes et achats d'oeuvres d'art sur le march",
    "kind": "dev",
    "methods": {
      "buyNFT(uint256)": {
        "params": {
          "_itemId": "Identifiant de l'article  acheter"
        }
      },
      "fetchMarketItems()": {
        "returns": {
          "_0": "Un tableau contenant tous les articles"
        }
      },
      "listNFT(address,uint256,uint256,string,string)": {
        "params": {
          "description": "Description de l'oeuvre",
          "name": "Nom de l'oeuvre",
          "nftContract": "Adresse du contrat ERC721",
          "price": "Prix du token",
          "tokenId": "Identifiant du token"
        }
      }
    },
    "title": "Contrat Marketplace",
    "version": 1
  },
  "userdoc": {
    "kind": "user",
    "methods": {
      "buyNFT(uint256)": {
        "notice": "Achte un NFT sur le march"
      },
      "fetchMarketItems()": {
        "notice": "Rcupre la liste des articles sur le march"
      },
      "listNFT(address,uint256,uint256,string,string)": {
        "notice": "Liste un NFT  vendre sur le march"
      }
    },
    "version": 1
  }
}